{
  "_format": "hh-sol-artifact-1",
  "contractName": "ToDoList",
  "sourceName": "contracts/ToDoList.sol",
  "abi": [
    {
      "anonymous": false,
      "inputs": [
        {
          "indexed": true,
          "internalType": "address",
          "name": "user",
          "type": "address"
        },
        {
          "indexed": false,
          "internalType": "string",
          "name": "title",
          "type": "string"
        },
        {
          "indexed": false,
          "internalType": "string",
          "name": "description",
          "type": "string"
        }
      ],
      "name": "ToDoAdded",
      "type": "event"
    },
    {
      "inputs": [
        {
          "internalType": "string",
          "name": "_title",
          "type": "string"
        },
        {
          "internalType": "string",
          "name": "_description",
          "type": "string"
        }
      ],
      "name": "addTodo",
      "outputs": [],
      "stateMutability": "nonpayable",
      "type": "function"
    },
    {
      "inputs": [
        {
          "internalType": "uint256",
          "name": "index",
          "type": "uint256"
        }
      ],
      "name": "getTodo",
      "outputs": [
        {
          "internalType": "string",
          "name": "",
          "type": "string"
        },
        {
          "internalType": "string",
          "name": "",
          "type": "string"
        },
        {
          "internalType": "bool",
          "name": "",
          "type": "bool"
        }
      ],
      "stateMutability": "view",
      "type": "function"
    },
    {
      "inputs": [],
      "name": "getTodoCount",
      "outputs": [
        {
          "internalType": "uint256",
          "name": "",
          "type": "uint256"
        }
      ],
      "stateMutability": "view",
      "type": "function"
    },
    {
      "inputs": [
        {
          "internalType": "address",
          "name": "",
          "type": "address"
        },
        {
          "internalType": "uint256",
          "name": "",
          "type": "uint256"
        }
      ],
      "name": "userTodos",
      "outputs": [
        {
          "internalType": "string",
          "name": "title",
          "type": "string"
        },
        {
          "internalType": "string",
          "name": "description",
          "type": "string"
        },
        {
          "internalType": "bool",
          "name": "isCompleted",
          "type": "bool"
        }
      ],
      "stateMutability": "view",
      "type": "function"
    }
  ],
  "bytecode": "0x608060405234801561001057600080fd5b5061083d806100206000396000f3fe608060405234801561001057600080fd5b506004361061004c5760003560e01c8063104a7cd8146100515780631b7fb2601461007457806398ad7a7f14610089578063dd68afb6146100ab575b600080fd5b336000908152602081905260409020546040519081526020015b60405180910390f35b610087610082366004610547565b6100be565b005b61009c6100973660046105ab565b61017c565b60405161006b93929190610629565b61009c6100b9366004610661565b6102d6565b604080516060810182528381526020808201849052600082840181905233815280825292832080546001810182559084529220815191928392600390910290910190819061010c9082610703565b50602082015160018201906101219082610703565b50604091820151600291909101805460ff19169115159190911790555133907f3f09474dd61d2b3410f7563704206e85386dedae9883a70aeb0816d0d85d93dd9061016f90869086906107c3565b60405180910390a2505050565b6000602052816000526040600020818154811061019857600080fd5b9060005260206000209060030201600091509150508060000180546101bc9061067a565b80601f01602080910402602001604051908101604052809291908181526020018280546101e89061067a565b80156102355780601f1061020a57610100808354040283529160200191610235565b820191906000526020600020905b81548152906001019060200180831161021857829003601f168201915b50505050509080600101805461024a9061067a565b80601f01602080910402602001604051908101604052809291908181526020018280546102769061067a565b80156102c35780601f10610298576101008083540402835291602001916102c3565b820191906000526020600020905b8154815290600101906020018083116102a657829003601f168201915b5050506002909301549192505060ff1683565b33600090815260208190526040812054606091829184106103335760405162461bcd60e51b8152602060048201526013602482015272496e646578206f7574206f6620626f756e647360681b604482015260640160405180910390fd5b336000908152602081905260408120805486908110610354576103546107f1565b9060005260206000209060030201905080600001816001018260020160009054906101000a900460ff1682805461038a9061067a565b80601f01602080910402602001604051908101604052809291908181526020018280546103b69061067a565b80156104035780601f106103d857610100808354040283529160200191610403565b820191906000526020600020905b8154815290600101906020018083116103e657829003601f168201915b505050505092508180546104169061067a565b80601f01602080910402602001604051908101604052809291908181526020018280546104429061067a565b801561048f5780601f106104645761010080835404028352916020019161048f565b820191906000526020600020905b81548152906001019060200180831161047257829003601f168201915b50505050509150935093509350509193909250565b634e487b7160e01b600052604160045260246000fd5b600082601f8301126104cb57600080fd5b813567ffffffffffffffff808211156104e6576104e66104a4565b604051601f8301601f19908116603f0116810190828211818310171561050e5761050e6104a4565b8160405283815286602085880101111561052757600080fd5b836020870160208301376000602085830101528094505050505092915050565b6000806040838503121561055a57600080fd5b823567ffffffffffffffff8082111561057257600080fd5b61057e868387016104ba565b9350602085013591508082111561059457600080fd5b506105a1858286016104ba565b9150509250929050565b600080604083850312156105be57600080fd5b82356001600160a01b03811681146105d557600080fd5b946020939093013593505050565b6000815180845260005b81811015610609576020818501810151868301820152016105ed565b506000602082860101526020601f19601f83011685010191505092915050565b60608152600061063c60608301866105e3565b828103602084015261064e81866105e3565b9150508215156040830152949350505050565b60006020828403121561067357600080fd5b5035919050565b600181811c9082168061068e57607f821691505b6020821081036106ae57634e487b7160e01b600052602260045260246000fd5b50919050565b601f8211156106fe57600081815260208120601f850160051c810160208610156106db5750805b601f850160051c820191505b818110156106fa578281556001016106e7565b5050505b505050565b815167ffffffffffffffff81111561071d5761071d6104a4565b6107318161072b845461067a565b846106b4565b602080601f831160018114610766576000841561074e5750858301515b600019600386901b1c1916600185901b1785556106fa565b600085815260208120601f198616915b8281101561079557888601518255948401946001909101908401610776565b50858210156107b35787850151600019600388901b60f8161c191681555b5050505050600190811b01905550565b6040815260006107d660408301856105e3565b82810360208401526107e881856105e3565b95945050505050565b634e487b7160e01b600052603260045260246000fdfea26469706673582212200e746b272d39a9c08340f1302457c807690a882722ae911ac2f7790373559fdc64736f6c63430008130033",
  "linkReferences": {},
  "deployedLinkReferences": {}
}